{
  "_format": "hh-sol-artifact-1",
  "contractName": "MyNFT",
  "sourceName": "contracts/MyNFT.sol",
  "abi": [
    {
      "inputs": [
        {
          "internalType": "address",
          "name": "initialOwner",
          "type": "address"
        }
      ],
      "stateMutability": "nonpayable",
      "type": "constructor"
    },
    {
      "inputs": [],
      "name": "ERC721EnumerableForbiddenBatchMint",
      "type": "error"
    },
    {
      "inputs": [
        {
          "internalType": "address",
          "name": "sender",
          "type": "address"
        },
        {
          "internalType": "uint256",
          "name": "tokenId",
          "type": "uint256"
        },
        {
          "internalType": "address",
          "name": "owner",
          "type": "address"
        }
      ],
      "name": "ERC721IncorrectOwner",
      "type": "error"
    },
    {
      "inputs": [
        {
          "internalType": "address",
          "name": "operator",
          "type": "address"
        },
        {
          "internalType": "uint256",
          "name": "tokenId",
          "type": "uint256"
        }
      ],
      "name": "ERC721InsufficientApproval",
      "type": "error"
    },
    {
      "inputs": [
        {
          "internalType": "address",
          "name": "approver",
          "type": "address"
        }
      ],
      "name": "ERC721InvalidApprover",
      "type": "error"
    },
    {
      "inputs": [
        {
          "internalType": "address",
          "name": "operator",
          "type": "address"
        }
      ],
      "name": "ERC721InvalidOperator",
      "type": "error"
    },
    {
      "inputs": [
        {
          "internalType": "address",
          "name": "owner",
          "type": "address"
        }
      ],
      "name": "ERC721InvalidOwner",
      "type": "error"
    },
    {
      "inputs": [
        {
          "internalType": "address",
          "name": "receiver",
          "type": "address"
        }
      ],
      "name": "ERC721InvalidReceiver",
      "type": "error"
    },
    {
      "inputs": [
        {
          "internalType": "address",
          "name": "sender",
          "type": "address"
        }
      ],
      "name": "ERC721InvalidSender",
      "type": "error"
    },
    {
      "inputs": [
        {
          "internalType": "uint256",
          "name": "tokenId",
          "type": "uint256"
        }
      ],
      "name": "ERC721NonexistentToken",
      "type": "error"
    },
    {
      "inputs": [
        {
          "internalType": "address",
          "name": "owner",
          "type": "address"
        },
        {
          "internalType": "uint256",
          "name": "index",
          "type": "uint256"
        }
      ],
      "name": "ERC721OutOfBoundsIndex",
      "type": "error"
    },
    {
      "inputs": [
        {
          "internalType": "address",
          "name": "owner",
          "type": "address"
        }
      ],
      "name": "OwnableInvalidOwner",
      "type": "error"
    },
    {
      "inputs": [
        {
          "internalType": "address",
          "name": "account",
          "type": "address"
        }
      ],
      "name": "OwnableUnauthorizedAccount",
      "type": "error"
    },
    {
      "anonymous": false,
      "inputs": [
        {
          "indexed": true,
          "internalType": "address",
          "name": "owner",
          "type": "address"
        },
        {
          "indexed": true,
          "internalType": "address",
          "name": "approved",
          "type": "address"
        },
        {
          "indexed": true,
          "internalType": "uint256",
          "name": "tokenId",
          "type": "uint256"
        }
      ],
      "name": "Approval",
      "type": "event"
    },
    {
      "anonymous": false,
      "inputs": [
        {
          "indexed": true,
          "internalType": "address",
          "name": "owner",
          "type": "address"
        },
        {
          "indexed": true,
          "internalType": "address",
          "name": "operator",
          "type": "address"
        },
        {
          "indexed": false,
          "internalType": "bool",
          "name": "approved",
          "type": "bool"
        }
      ],
      "name": "ApprovalForAll",
      "type": "event"
    },
    {
      "anonymous": false,
      "inputs": [
        {
          "indexed": true,
          "internalType": "address",
          "name": "previousOwner",
          "type": "address"
        },
        {
          "indexed": true,
          "internalType": "address",
          "name": "newOwner",
          "type": "address"
        }
      ],
      "name": "OwnershipTransferred",
      "type": "event"
    },
    {
      "anonymous": false,
      "inputs": [
        {
          "indexed": true,
          "internalType": "address",
          "name": "from",
          "type": "address"
        },
        {
          "indexed": true,
          "internalType": "address",
          "name": "to",
          "type": "address"
        },
        {
          "indexed": true,
          "internalType": "uint256",
          "name": "tokenId",
          "type": "uint256"
        }
      ],
      "name": "Transfer",
      "type": "event"
    },
    {
      "inputs": [
        {
          "internalType": "address",
          "name": "to",
          "type": "address"
        },
        {
          "internalType": "uint256",
          "name": "tokenId",
          "type": "uint256"
        }
      ],
      "name": "approve",
      "outputs": [],
      "stateMutability": "nonpayable",
      "type": "function"
    },
    {
      "inputs": [
        {
          "internalType": "address",
          "name": "owner",
          "type": "address"
        }
      ],
      "name": "balanceOf",
      "outputs": [
        {
          "internalType": "uint256",
          "name": "",
          "type": "uint256"
        }
      ],
      "stateMutability": "view",
      "type": "function"
    },
    {
      "inputs": [
        {
          "internalType": "uint256",
          "name": "tokenId",
          "type": "uint256"
        }
      ],
      "name": "getApproved",
      "outputs": [
        {
          "internalType": "address",
          "name": "",
          "type": "address"
        }
      ],
      "stateMutability": "view",
      "type": "function"
    },
    {
      "inputs": [],
      "name": "getMintPrice",
      "outputs": [
        {
          "internalType": "uint256",
          "name": "",
          "type": "uint256"
        }
      ],
      "stateMutability": "view",
      "type": "function"
    },
    {
      "inputs": [
        {
          "internalType": "address",
          "name": "owner",
          "type": "address"
        },
        {
          "internalType": "address",
          "name": "operator",
          "type": "address"
        }
      ],
      "name": "isApprovedForAll",
      "outputs": [
        {
          "internalType": "bool",
          "name": "",
          "type": "bool"
        }
      ],
      "stateMutability": "view",
      "type": "function"
    },
    {
      "inputs": [
        {
          "internalType": "address",
          "name": "to",
          "type": "address"
        }
      ],
      "name": "mint",
      "outputs": [
        {
          "internalType": "uint256",
          "name": "",
          "type": "uint256"
        }
      ],
      "stateMutability": "payable",
      "type": "function"
    },
    {
      "inputs": [],
      "name": "mintPrice",
      "outputs": [
        {
          "internalType": "uint256",
          "name": "",
          "type": "uint256"
        }
      ],
      "stateMutability": "view",
      "type": "function"
    },
    {
      "inputs": [],
      "name": "name",
      "outputs": [
        {
          "internalType": "string",
          "name": "",
          "type": "string"
        }
      ],
      "stateMutability": "view",
      "type": "function"
    },
    {
      "inputs": [],
      "name": "owner",
      "outputs": [
        {
          "internalType": "address",
          "name": "",
          "type": "address"
        }
      ],
      "stateMutability": "view",
      "type": "function"
    },
    {
      "inputs": [
        {
          "internalType": "uint256",
          "name": "tokenId",
          "type": "uint256"
        }
      ],
      "name": "ownerOf",
      "outputs": [
        {
          "internalType": "address",
          "name": "",
          "type": "address"
        }
      ],
      "stateMutability": "view",
      "type": "function"
    },
    {
      "inputs": [],
      "name": "renounceOwnership",
      "outputs": [],
      "stateMutability": "nonpayable",
      "type": "function"
    },
    {
      "inputs": [
        {
          "internalType": "address",
          "name": "from",
          "type": "address"
        },
        {
          "internalType": "address",
          "name": "to",
          "type": "address"
        },
        {
          "internalType": "uint256",
          "name": "tokenId",
          "type": "uint256"
        }
      ],
      "name": "safeTransferFrom",
      "outputs": [],
      "stateMutability": "nonpayable",
      "type": "function"
    },
    {
      "inputs": [
        {
          "internalType": "address",
          "name": "from",
          "type": "address"
        },
        {
          "internalType": "address",
          "name": "to",
          "type": "address"
        },
        {
          "internalType": "uint256",
          "name": "tokenId",
          "type": "uint256"
        },
        {
          "internalType": "bytes",
          "name": "data",
          "type": "bytes"
        }
      ],
      "name": "safeTransferFrom",
      "outputs": [],
      "stateMutability": "nonpayable",
      "type": "function"
    },
    {
      "inputs": [
        {
          "internalType": "address",
          "name": "operator",
          "type": "address"
        },
        {
          "internalType": "bool",
          "name": "approved",
          "type": "bool"
        }
      ],
      "name": "setApprovalForAll",
      "outputs": [],
      "stateMutability": "nonpayable",
      "type": "function"
    },
    {
      "inputs": [
        {
          "internalType": "string",
          "name": "baseURI",
          "type": "string"
        }
      ],
      "name": "setBaseURI",
      "outputs": [],
      "stateMutability": "nonpayable",
      "type": "function"
    },
    {
      "inputs": [
        {
          "internalType": "bytes4",
          "name": "interfaceId",
          "type": "bytes4"
        }
      ],
      "name": "supportsInterface",
      "outputs": [
        {
          "internalType": "bool",
          "name": "",
          "type": "bool"
        }
      ],
      "stateMutability": "view",
      "type": "function"
    },
    {
      "inputs": [],
      "name": "symbol",
      "outputs": [
        {
          "internalType": "string",
          "name": "",
          "type": "string"
        }
      ],
      "stateMutability": "view",
      "type": "function"
    },
    {
      "inputs": [
        {
          "internalType": "uint256",
          "name": "index",
          "type": "uint256"
        }
      ],
      "name": "tokenByIndex",
      "outputs": [
        {
          "internalType": "uint256",
          "name": "",
          "type": "uint256"
        }
      ],
      "stateMutability": "view",
      "type": "function"
    },
    {
      "inputs": [
        {
          "internalType": "address",
          "name": "owner",
          "type": "address"
        },
        {
          "internalType": "uint256",
          "name": "index",
          "type": "uint256"
        }
      ],
      "name": "tokenOfOwnerByIndex",
      "outputs": [
        {
          "internalType": "uint256",
          "name": "",
          "type": "uint256"
        }
      ],
      "stateMutability": "view",
      "type": "function"
    },
    {
      "inputs": [
        {
          "internalType": "uint256",
          "name": "tokenId",
          "type": "uint256"
        }
      ],
      "name": "tokenURI",
      "outputs": [
        {
          "internalType": "string",
          "name": "",
          "type": "string"
        }
      ],
      "stateMutability": "view",
      "type": "function"
    },
    {
      "inputs": [],
      "name": "totalSupply",
      "outputs": [
        {
          "internalType": "uint256",
          "name": "",
          "type": "uint256"
        }
      ],
      "stateMutability": "view",
      "type": "function"
    },
    {
      "inputs": [
        {
          "internalType": "address",
          "name": "from",
          "type": "address"
        },
        {
          "internalType": "address",
          "name": "to",
          "type": "address"
        },
        {
          "internalType": "uint256",
          "name": "tokenId",
          "type": "uint256"
        }
      ],
      "name": "transferFrom",
      "outputs": [],
      "stateMutability": "nonpayable",
      "type": "function"
    },
    {
      "inputs": [
        {
          "internalType": "address",
          "name": "newOwner",
          "type": "address"
        }
      ],
      "name": "transferOwnership",
      "outputs": [],
      "stateMutability": "nonpayable",
      "type": "function"
    },
    {
      "inputs": [],
      "name": "withdraw",
      "outputs": [],
      "stateMutability": "nonpayable",
      "type": "function"
    }
  ],
  "bytecode": "0x6080604052662386f26fc10000600c553480156200001c57600080fd5b506040516200347838038062003478833981810160405281019062000042919062000293565b806040518060400160405280600581526020017f4d794e46540000000000000000000000000000000000000000000000000000008152506040518060400160405280600481526020017f4d4e4654000000000000000000000000000000000000000000000000000000008152508160009081620000c091906200053f565b508060019081620000d291906200053f565b505050600073ffffffffffffffffffffffffffffffffffffffff168173ffffffffffffffffffffffffffffffffffffffff16036200014a5760006040517f1e4fbdf700000000000000000000000000000000000000000000000000000000815260040162000141919062000637565b60405180910390fd5b6200015b816200016360201b60201c565b505062000654565b6000600a60009054906101000a900473ffffffffffffffffffffffffffffffffffffffff16905081600a60006101000a81548173ffffffffffffffffffffffffffffffffffffffff021916908373ffffffffffffffffffffffffffffffffffffffff1602179055508173ffffffffffffffffffffffffffffffffffffffff168173ffffffffffffffffffffffffffffffffffffffff167f8be0079c531659141344cd1fd0a4f28419497f9722a3daafe3b4186f6b6457e060405160405180910390a35050565b600080fd5b600073ffffffffffffffffffffffffffffffffffffffff82169050919050565b60006200025b826200022e565b9050919050565b6200026d816200024e565b81146200027957600080fd5b50565b6000815190506200028d8162000262565b92915050565b600060208284031215620002ac57620002ab62000229565b5b6000620002bc848285016200027c565b91505092915050565b600081519050919050565b7f4e487b7100000000000000000000000000000000000000000000000000000000600052604160045260246000fd5b7f4e487b7100000000000000000000000000000000000000000000000000000000600052602260045260246000fd5b600060028204905060018216806200034757607f821691505b6020821081036200035d576200035c620002ff565b5b50919050565b60008190508160005260206000209050919050565b60006020601f8301049050919050565b600082821b905092915050565b600060088302620003c77fffffffffffffffffffffffffffffffffffffffffffffffffffffffffffffffff8262000388565b620003d3868362000388565b95508019841693508086168417925050509392505050565b6000819050919050565b6000819050919050565b6000620004206200041a6200041484620003eb565b620003f5565b620003eb565b9050919050565b6000819050919050565b6200043c83620003ff565b620004546200044b8262000427565b84845462000395565b825550505050565b600090565b6200046b6200045c565b6200047881848462000431565b505050565b5b81811015620004a0576200049460008262000461565b6001810190506200047e565b5050565b601f821115620004ef57620004b98162000363565b620004c48462000378565b81016020851015620004d4578190505b620004ec620004e38562000378565b8301826200047d565b50505b505050565b600082821c905092915050565b60006200051460001984600802620004f4565b1980831691505092915050565b60006200052f838362000501565b9150826002028217905092915050565b6200054a82620002c5565b67ffffffffffffffff811115620005665762000565620002d0565b5b6200057282546200032e565b6200057f828285620004a4565b600060209050601f831160018114620005b75760008415620005a2578287015190505b620005ae858262000521565b8655506200061e565b601f198416620005c78662000363565b60005b82811015620005f157848901518255600182019150602085019450602081019050620005ca565b868310156200061157848901516200060d601f89168262000501565b8355505b6001600288020188555050505b505050505050565b62000631816200024e565b82525050565b60006020820190506200064e600083018462000626565b92915050565b612e1480620006646000396000f3fe60806040526004361061014b5760003560e01c80636817c76c116100b6578063a22cb4651161006f578063a22cb46514610497578063a7f93ebd146104c0578063b88d4fde146104eb578063c87b56dd14610514578063e985e9c514610551578063f2fde38b1461058e5761014b565b80636817c76c146103925780636a627842146103bd57806370a08231146103ed578063715018a61461042a5780638da5cb5b1461044157806395d89b411461046c5761014b565b80632f745c59116101085780632f745c59146102725780633ccfd60b146102af57806342842e0e146102c65780634f6ccce7146102ef57806355f804b31461032c5780636352211e146103555761014b565b806301ffc9a71461015057806306fdde031461018d578063081812fc146101b8578063095ea7b3146101f557806318160ddd1461021e57806323b872dd14610249575b600080fd5b34801561015c57600080fd5b5061017760048036038101906101729190612195565b6105b7565b60405161018491906121dd565b60405180910390f35b34801561019957600080fd5b506101a2610631565b6040516101af9190612288565b60405180910390f35b3480156101c457600080fd5b506101df60048036038101906101da91906122e0565b6106c3565b6040516101ec919061234e565b60405180910390f35b34801561020157600080fd5b5061021c60048036038101906102179190612395565b6106df565b005b34801561022a57600080fd5b506102336106f5565b60405161024091906123e4565b60405180910390f35b34801561025557600080fd5b50610270600480360381019061026b91906123ff565b610702565b005b34801561027e57600080fd5b5061029960048036038101906102949190612395565b610804565b6040516102a691906123e4565b60405180910390f35b3480156102bb57600080fd5b506102c46108ad565b005b3480156102d257600080fd5b506102ed60048036038101906102e891906123ff565b610905565b005b3480156102fb57600080fd5b50610316600480360381019061031191906122e0565b610925565b60405161032391906123e4565b60405180910390f35b34801561033857600080fd5b50610353600480360381019061034e9190612587565b61099b565b005b34801561036157600080fd5b5061037c600480360381019061037791906122e0565b6109b6565b604051610389919061234e565b60405180910390f35b34801561039e57600080fd5b506103a76109c8565b6040516103b491906123e4565b60405180910390f35b6103d760048036038101906103d291906125d0565b6109ce565b6040516103e491906123e4565b60405180910390f35b3480156103f957600080fd5b50610414600480360381019061040f91906125d0565b610a45565b60405161042191906123e4565b60405180910390f35b34801561043657600080fd5b5061043f610aff565b005b34801561044d57600080fd5b50610456610b13565b604051610463919061234e565b60405180910390f35b34801561047857600080fd5b50610481610b3d565b60405161048e9190612288565b60405180910390f35b3480156104a357600080fd5b506104be60048036038101906104b99190612629565b610bcf565b005b3480156104cc57600080fd5b506104d5610be5565b6040516104e291906123e4565b60405180910390f35b3480156104f757600080fd5b50610512600480360381019061050d919061270a565b610bef565b005b34801561052057600080fd5b5061053b600480360381019061053691906122e0565b610c14565b6040516105489190612288565b60405180910390f35b34801561055d57600080fd5b506105786004803603810190610573919061278d565b610c7d565b60405161058591906121dd565b60405180910390f35b34801561059a57600080fd5b506105b560048036038101906105b091906125d0565b610d11565b005b60007f780e9d63000000000000000000000000000000000000000000000000000000007bffffffffffffffffffffffffffffffffffffffffffffffffffffffff1916827bffffffffffffffffffffffffffffffffffffffffffffffffffffffff1916148061062a575061062982610d97565b5b9050919050565b606060008054610640906127fc565b80601f016020809104026020016040519081016040528092919081815260200182805461066c906127fc565b80156106b95780601f1061068e576101008083540402835291602001916106b9565b820191906000526020600020905b81548152906001019060200180831161069c57829003601f168201915b5050505050905090565b60006106ce82610e79565b506106d882610f01565b9050919050565b6106f182826106ec610f3e565b610f46565b5050565b6000600880549050905090565b600073ffffffffffffffffffffffffffffffffffffffff168273ffffffffffffffffffffffffffffffffffffffff16036107745760006040517f64a0ae9200000000000000000000000000000000000000000000000000000000815260040161076b919061234e565b60405180910390fd5b60006107888383610783610f3e565b610f58565b90508373ffffffffffffffffffffffffffffffffffffffff168173ffffffffffffffffffffffffffffffffffffffff16146107fe578382826040517f64283d7b0000000000000000000000000000000000000000000000000000000081526004016107f59392919061282d565b60405180910390fd5b50505050565b600061080f83610a45565b82106108545782826040517fa57d13dc00000000000000000000000000000000000000000000000000000000815260040161084b929190612864565b60405180910390fd5b600660008473ffffffffffffffffffffffffffffffffffffffff1673ffffffffffffffffffffffffffffffffffffffff168152602001908152602001600020600083815260200190815260200160002054905092915050565b6108b5611075565b6108bd610b13565b73ffffffffffffffffffffffffffffffffffffffff166108fc479081150290604051600060405180830381858888f19350505050158015610902573d6000803e3d6000fd5b50565b61092083838360405180602001604052806000815250610bef565b505050565b600061092f6106f5565b8210610975576000826040517fa57d13dc00000000000000000000000000000000000000000000000000000000815260040161096c929190612864565b60405180910390fd5b600882815481106109895761098861288d565b5b90600052602060002001549050919050565b6109a3611075565b80600d90816109b29190612a68565b5050565b60006109c182610e79565b9050919050565b600c5481565b6000600c54341015610a15576040517f08c379a0000000000000000000000000000000000000000000000000000000008152600401610a0c90612b86565b60405180910390fd5b6001600b6000828254610a289190612bd5565b92505081905550610a3b82600b546110fc565b600b549050919050565b60008073ffffffffffffffffffffffffffffffffffffffff168273ffffffffffffffffffffffffffffffffffffffff1603610ab85760006040517f89c62b64000000000000000000000000000000000000000000000000000000008152600401610aaf919061234e565b60405180910390fd5b600360008373ffffffffffffffffffffffffffffffffffffffff1673ffffffffffffffffffffffffffffffffffffffff168152602001908152602001600020549050919050565b610b07611075565b610b1160006111f5565b565b6000600a60009054906101000a900473ffffffffffffffffffffffffffffffffffffffff16905090565b606060018054610b4c906127fc565b80601f0160208091040260200160405190810160405280929190818152602001828054610b78906127fc565b8015610bc55780601f10610b9a57610100808354040283529160200191610bc5565b820191906000526020600020905b815481529060010190602001808311610ba857829003601f168201915b5050505050905090565b610be1610bda610f3e565b83836112bb565b5050565b6000600c54905090565b610bfa848484610702565b610c0e610c05610f3e565b8585858561142a565b50505050565b6060610c1f82610e79565b506000610c2a6115db565b90506000815111610c4a5760405180602001604052806000815250610c75565b80610c548461166d565b604051602001610c65929190612c45565b6040516020818303038152906040525b915050919050565b6000600560008473ffffffffffffffffffffffffffffffffffffffff1673ffffffffffffffffffffffffffffffffffffffff16815260200190815260200160002060008373ffffffffffffffffffffffffffffffffffffffff1673ffffffffffffffffffffffffffffffffffffffff16815260200190815260200160002060009054906101000a900460ff16905092915050565b610d19611075565b600073ffffffffffffffffffffffffffffffffffffffff168173ffffffffffffffffffffffffffffffffffffffff1603610d8b5760006040517f1e4fbdf7000000000000000000000000000000000000000000000000000000008152600401610d82919061234e565b60405180910390fd5b610d94816111f5565b50565b60007f80ac58cd000000000000000000000000000000000000000000000000000000007bffffffffffffffffffffffffffffffffffffffffffffffffffffffff1916827bffffffffffffffffffffffffffffffffffffffffffffffffffffffff19161480610e6257507f5b5e139f000000000000000000000000000000000000000000000000000000007bffffffffffffffffffffffffffffffffffffffffffffffffffffffff1916827bffffffffffffffffffffffffffffffffffffffffffffffffffffffff1916145b80610e725750610e718261173b565b5b9050919050565b600080610e85836117a5565b9050600073ffffffffffffffffffffffffffffffffffffffff168173ffffffffffffffffffffffffffffffffffffffff1603610ef857826040517f7e273289000000000000000000000000000000000000000000000000000000008152600401610eef91906123e4565b60405180910390fd5b80915050919050565b60006004600083815260200190815260200160002060009054906101000a900473ffffffffffffffffffffffffffffffffffffffff169050919050565b600033905090565b610f5383838360016117e2565b505050565b600080610f668585856119a7565b9050600073ffffffffffffffffffffffffffffffffffffffff168173ffffffffffffffffffffffffffffffffffffffff1603610faa57610fa584611bc1565b610fe9565b8473ffffffffffffffffffffffffffffffffffffffff168173ffffffffffffffffffffffffffffffffffffffff1614610fe857610fe78185611c0a565b5b5b600073ffffffffffffffffffffffffffffffffffffffff168573ffffffffffffffffffffffffffffffffffffffff160361102b5761102684611cf5565b61106a565b8473ffffffffffffffffffffffffffffffffffffffff168173ffffffffffffffffffffffffffffffffffffffff1614611069576110688585611dc6565b5b5b809150509392505050565b61107d610f3e565b73ffffffffffffffffffffffffffffffffffffffff1661109b610b13565b73ffffffffffffffffffffffffffffffffffffffff16146110fa576110be610f3e565b6040517f118cdaa70000000000000000000000000000000000000000000000000000000081526004016110f1919061234e565b60405180910390fd5b565b600073ffffffffffffffffffffffffffffffffffffffff168273ffffffffffffffffffffffffffffffffffffffff160361116e5760006040517f64a0ae92000000000000000000000000000000000000000000000000000000008152600401611165919061234e565b60405180910390fd5b600061117c83836000610f58565b9050600073ffffffffffffffffffffffffffffffffffffffff168173ffffffffffffffffffffffffffffffffffffffff16146111f05760006040517f73c6ac6e0000000000000000000000000000000000000000000000000000000081526004016111e7919061234e565b60405180910390fd5b505050565b6000600a60009054906101000a900473ffffffffffffffffffffffffffffffffffffffff16905081600a60006101000a81548173ffffffffffffffffffffffffffffffffffffffff021916908373ffffffffffffffffffffffffffffffffffffffff1602179055508173ffffffffffffffffffffffffffffffffffffffff168173ffffffffffffffffffffffffffffffffffffffff167f8be0079c531659141344cd1fd0a4f28419497f9722a3daafe3b4186f6b6457e060405160405180910390a35050565b600073ffffffffffffffffffffffffffffffffffffffff168273ffffffffffffffffffffffffffffffffffffffff160361132c57816040517f5b08ba18000000000000000000000000000000000000000000000000000000008152600401611323919061234e565b60405180910390fd5b80600560008573ffffffffffffffffffffffffffffffffffffffff1673ffffffffffffffffffffffffffffffffffffffff16815260200190815260200160002060008473ffffffffffffffffffffffffffffffffffffffff1673ffffffffffffffffffffffffffffffffffffffff16815260200190815260200160002060006101000a81548160ff0219169083151502179055508173ffffffffffffffffffffffffffffffffffffffff168373ffffffffffffffffffffffffffffffffffffffff167f17307eab39ab6107e8899845ad3d59bd9653f200f220920489ca2b5937696c318360405161141d91906121dd565b60405180910390a3505050565b60008373ffffffffffffffffffffffffffffffffffffffff163b11156115d4578273ffffffffffffffffffffffffffffffffffffffff1663150b7a02868685856040518563ffffffff1660e01b81526004016114899493929190612cbe565b6020604051808303816000875af19250505080156114c557506040513d601f19601f820116820180604052508101906114c29190612d1f565b60015b611549573d80600081146114f5576040519150601f19603f3d011682016040523d82523d6000602084013e6114fa565b606091505b50600081510361154157836040517f64a0ae92000000000000000000000000000000000000000000000000000000008152600401611538919061234e565b60405180910390fd5b805181602001fd5b63150b7a0260e01b7bffffffffffffffffffffffffffffffffffffffffffffffffffffffff1916817bffffffffffffffffffffffffffffffffffffffffffffffffffffffff1916146115d257836040517f64a0ae920000000000000000000000000000000000000000000000000000000081526004016115c9919061234e565b60405180910390fd5b505b5050505050565b6060600d80546115ea906127fc565b80601f0160208091040260200160405190810160405280929190818152602001828054611616906127fc565b80156116635780601f1061163857610100808354040283529160200191611663565b820191906000526020600020905b81548152906001019060200180831161164657829003601f168201915b5050505050905090565b60606000600161167c84611e51565b01905060008167ffffffffffffffff81111561169b5761169a61245c565b5b6040519080825280601f01601f1916602001820160405280156116cd5781602001600182028036833780820191505090505b509050600082602001820190505b600115611730578080600190039150507f3031323334353637383961626364656600000000000000000000000000000000600a86061a8153600a858161172457611723612d4c565b5b049450600085036116db575b819350505050919050565b60007f01ffc9a7000000000000000000000000000000000000000000000000000000007bffffffffffffffffffffffffffffffffffffffffffffffffffffffff1916827bffffffffffffffffffffffffffffffffffffffffffffffffffffffff1916149050919050565b60006002600083815260200190815260200160002060009054906101000a900473ffffffffffffffffffffffffffffffffffffffff169050919050565b808061181b5750600073ffffffffffffffffffffffffffffffffffffffff168273ffffffffffffffffffffffffffffffffffffffff1614155b1561194f57600061182b84610e79565b9050600073ffffffffffffffffffffffffffffffffffffffff168373ffffffffffffffffffffffffffffffffffffffff161415801561189657508273ffffffffffffffffffffffffffffffffffffffff168173ffffffffffffffffffffffffffffffffffffffff1614155b80156118a957506118a78184610c7d565b155b156118eb57826040517fa9fbf51f0000000000000000000000000000000000000000000000000000000081526004016118e2919061234e565b60405180910390fd5b811561194d57838573ffffffffffffffffffffffffffffffffffffffff168273ffffffffffffffffffffffffffffffffffffffff167f8c5be1e5ebec7d5bd14f71427d1e84f3dd0314c0f7b2291e5b200ac8c7c3b92560405160405180910390a45b505b836004600085815260200190815260200160002060006101000a81548173ffffffffffffffffffffffffffffffffffffffff021916908373ffffffffffffffffffffffffffffffffffffffff16021790555050505050565b6000806119b3846117a5565b9050600073ffffffffffffffffffffffffffffffffffffffff168373ffffffffffffffffffffffffffffffffffffffff16146119f5576119f4818486611fa4565b5b600073ffffffffffffffffffffffffffffffffffffffff168173ffffffffffffffffffffffffffffffffffffffff1614611a8657611a376000856000806117e2565b6001600360008373ffffffffffffffffffffffffffffffffffffffff1673ffffffffffffffffffffffffffffffffffffffff168152602001908152602001600020600082825403925050819055505b600073ffffffffffffffffffffffffffffffffffffffff168573ffffffffffffffffffffffffffffffffffffffff1614611b09576001600360008773ffffffffffffffffffffffffffffffffffffffff1673ffffffffffffffffffffffffffffffffffffffff168152602001908152602001600020600082825401925050819055505b846002600086815260200190815260200160002060006101000a81548173ffffffffffffffffffffffffffffffffffffffff021916908373ffffffffffffffffffffffffffffffffffffffff160217905550838573ffffffffffffffffffffffffffffffffffffffff168273ffffffffffffffffffffffffffffffffffffffff167fddf252ad1be2c89b69c2b068fc378daa952ba7f163c4a11628f55a4df523b3ef60405160405180910390a4809150509392505050565b6008805490506009600083815260200190815260200160002081905550600881908060018154018082558091505060019003906000526020600020016000909190919091505550565b6000611c1583610a45565b90506000600760008481526020019081526020016000205490506000600660008673ffffffffffffffffffffffffffffffffffffffff1673ffffffffffffffffffffffffffffffffffffffff1681526020019081526020016000209050828214611cc15760008160008581526020019081526020016000205490508082600085815260200190815260200160002081905550826007600083815260200190815260200160002081905550505b6007600085815260200190815260200160002060009055806000848152602001908152602001600020600090555050505050565b60006001600880549050611d099190612d7b565b9050600060096000848152602001908152602001600020549050600060088381548110611d3957611d3861288d565b5b906000526020600020015490508060088381548110611d5b57611d5a61288d565b5b906000526020600020018190555081600960008381526020019081526020016000208190555060096000858152602001908152602001600020600090556008805480611daa57611da9612daf565b5b6001900381819060005260206000200160009055905550505050565b60006001611dd384610a45565b611ddd9190612d7b565b905081600660008573ffffffffffffffffffffffffffffffffffffffff1673ffffffffffffffffffffffffffffffffffffffff168152602001908152602001600020600083815260200190815260200160002081905550806007600084815260200190815260200160002081905550505050565b600080600090507a184f03e93ff9f4daa797ed6e38ed64bf6a1f0100000000000000008310611eaf577a184f03e93ff9f4daa797ed6e38ed64bf6a1f0100000000000000008381611ea557611ea4612d4c565b5b0492506040810190505b6d04ee2d6d415b85acef81000000008310611eec576d04ee2d6d415b85acef81000000008381611ee257611ee1612d4c565b5b0492506020810190505b662386f26fc100008310611f1b57662386f26fc100008381611f1157611f10612d4c565b5b0492506010810190505b6305f5e1008310611f44576305f5e1008381611f3a57611f39612d4c565b5b0492506008810190505b6127108310611f69576127108381611f5f57611f5e612d4c565b5b0492506004810190505b60648310611f8c5760648381611f8257611f81612d4c565b5b0492506002810190505b600a8310611f9b576001810190505b80915050919050565b611faf838383612068565b61206357600073ffffffffffffffffffffffffffffffffffffffff168373ffffffffffffffffffffffffffffffffffffffff160361202457806040517f7e27328900000000000000000000000000000000000000000000000000000000815260040161201b91906123e4565b60405180910390fd5b81816040517f177e802f00000000000000000000000000000000000000000000000000000000815260040161205a929190612864565b60405180910390fd5b505050565b60008073ffffffffffffffffffffffffffffffffffffffff168373ffffffffffffffffffffffffffffffffffffffff161415801561212057508273ffffffffffffffffffffffffffffffffffffffff168473ffffffffffffffffffffffffffffffffffffffff1614806120e157506120e08484610c7d565b5b8061211f57508273ffffffffffffffffffffffffffffffffffffffff1661210783610f01565b73ffffffffffffffffffffffffffffffffffffffff16145b5b90509392505050565b6000604051905090565b600080fd5b600080fd5b60007fffffffff0000000000000000000000000000000000000000000000000000000082169050919050565b6121728161213d565b811461217d57600080fd5b50565b60008135905061218f81612169565b92915050565b6000602082840312156121ab576121aa612133565b5b60006121b984828501612180565b91505092915050565b60008115159050919050565b6121d7816121c2565b82525050565b60006020820190506121f260008301846121ce565b92915050565b600081519050919050565b600082825260208201905092915050565b60005b83811015612232578082015181840152602081019050612217565b60008484015250505050565b6000601f19601f8301169050919050565b600061225a826121f8565b6122648185612203565b9350612274818560208601612214565b61227d8161223e565b840191505092915050565b600060208201905081810360008301526122a2818461224f565b905092915050565b6000819050919050565b6122bd816122aa565b81146122c857600080fd5b50565b6000813590506122da816122b4565b92915050565b6000602082840312156122f6576122f5612133565b5b6000612304848285016122cb565b91505092915050565b600073ffffffffffffffffffffffffffffffffffffffff82169050919050565b60006123388261230d565b9050919050565b6123488161232d565b82525050565b6000602082019050612363600083018461233f565b92915050565b6123728161232d565b811461237d57600080fd5b50565b60008135905061238f81612369565b92915050565b600080604083850312156123ac576123ab612133565b5b60006123ba85828601612380565b92505060206123cb858286016122cb565b9150509250929050565b6123de816122aa565b82525050565b60006020820190506123f960008301846123d5565b92915050565b60008060006060848603121561241857612417612133565b5b600061242686828701612380565b935050602061243786828701612380565b9250506040612448868287016122cb565b9150509250925092565b600080fd5b600080fd5b7f4e487b7100000000000000000000000000000000000000000000000000000000600052604160045260246000fd5b6124948261223e565b810181811067ffffffffffffffff821117156124b3576124b261245c565b5b80604052505050565b60006124c6612129565b90506124d2828261248b565b919050565b600067ffffffffffffffff8211156124f2576124f161245c565b5b6124fb8261223e565b9050602081019050919050565b82818337600083830152505050565b600061252a612525846124d7565b6124bc565b90508281526020810184848401111561254657612545612457565b5b612551848285612508565b509392505050565b600082601f83011261256e5761256d612452565b5b813561257e848260208601612517565b91505092915050565b60006020828403121561259d5761259c612133565b5b600082013567ffffffffffffffff8111156125bb576125ba612138565b5b6125c784828501612559565b91505092915050565b6000602082840312156125e6576125e5612133565b5b60006125f484828501612380565b91505092915050565b612606816121c2565b811461261157600080fd5b50565b600081359050612623816125fd565b92915050565b600080604083850312156126405761263f612133565b5b600061264e85828601612380565b925050602061265f85828601612614565b9150509250929050565b600067ffffffffffffffff8211156126845761268361245c565b5b61268d8261223e565b9050602081019050919050565b60006126ad6126a884612669565b6124bc565b9050828152602081018484840111156126c9576126c8612457565b5b6126d4848285612508565b509392505050565b600082601f8301126126f1576126f0612452565b5b813561270184826020860161269a565b91505092915050565b6000806000806080858703121561272457612723612133565b5b600061273287828801612380565b945050602061274387828801612380565b9350506040612754878288016122cb565b925050606085013567ffffffffffffffff81111561277557612774612138565b5b612781878288016126dc565b91505092959194509250565b600080604083850312156127a4576127a3612133565b5b60006127b285828601612380565b92505060206127c385828601612380565b9150509250929050565b7f4e487b7100000000000000000000000000000000000000000000000000000000600052602260045260246000fd5b6000600282049050600182168061281457607f821691505b602082108103612827576128266127cd565b5b50919050565b6000606082019050612842600083018661233f565b61284f60208301856123d5565b61285c604083018461233f565b949350505050565b6000604082019050612879600083018561233f565b61288660208301846123d5565b9392505050565b7f4e487b7100000000000000000000000000000000000000000000000000000000600052603260045260246000fd5b60008190508160005260206000209050919050565b60006020601f8301049050919050565b600082821b905092915050565b60006008830261291e7fffffffffffffffffffffffffffffffffffffffffffffffffffffffffffffffff826128e1565b61292886836128e1565b95508019841693508086168417925050509392505050565b6000819050919050565b600061296561296061295b846122aa565b612940565b6122aa565b9050919050565b6000819050919050565b61297f8361294a565b61299361298b8261296c565b8484546128ee565b825550505050565b600090565b6129a861299b565b6129b3818484612976565b505050565b5b818110156129d7576129cc6000826129a0565b6001810190506129b9565b5050565b601f821115612a1c576129ed816128bc565b6129f6846128d1565b81016020851015612a05578190505b612a19612a11856128d1565b8301826129b8565b50505b505050565b600082821c905092915050565b6000612a3f60001984600802612a21565b1980831691505092915050565b6000612a588383612a2e565b9150826002028217905092915050565b612a71826121f8565b67ffffffffffffffff811115612a8a57612a8961245c565b5b612a9482546127fc565b612a9f8282856129db565b600060209050601f831160018114612ad25760008415612ac0578287015190505b612aca8582612a4c565b865550612b32565b601f198416612ae0866128bc565b60005b82811015612b0857848901518255600182019150602085019450602081019050612ae3565b86831015612b255784890151612b21601f891682612a2e565b8355505b6001600288020188555050505b505050505050565b7f496e73756666696369656e74204554482073656e740000000000000000000000600082015250565b6000612b70601583612203565b9150612b7b82612b3a565b602082019050919050565b60006020820190508181036000830152612b9f81612b63565b9050919050565b7f4e487b7100000000000000000000000000000000000000000000000000000000600052601160045260246000fd5b6000612be0826122aa565b9150612beb836122aa565b9250828201905080821115612c0357612c02612ba6565b5b92915050565b600081905092915050565b6000612c1f826121f8565b612c298185612c09565b9350612c39818560208601612214565b80840191505092915050565b6000612c518285612c14565b9150612c5d8284612c14565b91508190509392505050565b600081519050919050565b600082825260208201905092915050565b6000612c9082612c69565b612c9a8185612c74565b9350612caa818560208601612214565b612cb38161223e565b840191505092915050565b6000608082019050612cd3600083018761233f565b612ce0602083018661233f565b612ced60408301856123d5565b8181036060830152612cff8184612c85565b905095945050505050565b600081519050612d1981612169565b92915050565b600060208284031215612d3557612d34612133565b5b6000612d4384828501612d0a565b91505092915050565b7f4e487b7100000000000000000000000000000000000000000000000000000000600052601260045260246000fd5b6000612d86826122aa565b9150612d91836122aa565b9250828203905081811115612da957612da8612ba6565b5b92915050565b7f4e487b7100000000000000000000000000000000000000000000000000000000600052603160045260246000fdfea264697066735822122018ca3f036de559c61c5737f585501329bd1b95b1221b729882a32e6516da4b6c64736f6c63430008140033",
  "linkReferences": {},
  "deployedLinkReferences": {}
}