{
  "_format": "hh-sol-artifact-1",
  "contractName": "CryptoCanvas",
  "sourceName": "contracts/CryptoCanvas.sol",
  "abi": [
    {
      "inputs": [
        {
          "internalType": "string",
          "name": "name",
          "type": "string"
        },
        {
          "internalType": "string",
          "name": "symbol",
          "type": "string"
        },
        {
          "internalType": "uint256",
          "name": "maxTokenSupply",
          "type": "uint256"
        },
        {
          "internalType": "uint256",
          "name": "mintPrice",
          "type": "uint256"
        }
      ],
      "stateMutability": "nonpayable",
      "type": "constructor"
    },
    {
      "inputs": [],
      "name": "MaxSupplyReached",
      "type": "error"
    },
    {
      "inputs": [],
      "name": "MintPriceNotPaid",
      "type": "error"
    },
    {
      "inputs": [],
      "name": "NonExistentToken",
      "type": "error"
    },
    {
      "inputs": [],
      "name": "WithdrawFailed",
      "type": "error"
    },
    {
      "anonymous": false,
      "inputs": [
        {
          "indexed": true,
          "internalType": "address",
          "name": "owner",
          "type": "address"
        },
        {
          "indexed": true,
          "internalType": "address",
          "name": "approved",
          "type": "address"
        },
        {
          "indexed": true,
          "internalType": "uint256",
          "name": "tokenId",
          "type": "uint256"
        }
      ],
      "name": "Approval",
      "type": "event"
    },
    {
      "anonymous": false,
      "inputs": [
        {
          "indexed": true,
          "internalType": "address",
          "name": "owner",
          "type": "address"
        },
        {
          "indexed": true,
          "internalType": "address",
          "name": "operator",
          "type": "address"
        },
        {
          "indexed": false,
          "internalType": "bool",
          "name": "approved",
          "type": "bool"
        }
      ],
      "name": "ApprovalForAll",
      "type": "event"
    },
    {
      "anonymous": false,
      "inputs": [
        {
          "indexed": false,
          "internalType": "uint256",
          "name": "_fromTokenId",
          "type": "uint256"
        },
        {
          "indexed": false,
          "internalType": "uint256",
          "name": "_toTokenId",
          "type": "uint256"
        }
      ],
      "name": "BatchMetadataUpdate",
      "type": "event"
    },
    {
      "anonymous": false,
      "inputs": [
        {
          "indexed": false,
          "internalType": "uint256",
          "name": "newMaxSupply",
          "type": "uint256"
        }
      ],
      "name": "MaxSupplyChanged",
      "type": "event"
    },
    {
      "anonymous": false,
      "inputs": [
        {
          "indexed": false,
          "internalType": "uint256",
          "name": "_tokenId",
          "type": "uint256"
        }
      ],
      "name": "MetadataUpdate",
      "type": "event"
    },
    {
      "anonymous": false,
      "inputs": [
        {
          "indexed": false,
          "internalType": "uint256",
          "name": "newMintPrice",
          "type": "uint256"
        }
      ],
      "name": "MintPriceChanged",
      "type": "event"
    },
    {
      "anonymous": false,
      "inputs": [
        {
          "indexed": true,
          "internalType": "bytes32",
          "name": "role",
          "type": "bytes32"
        },
        {
          "indexed": true,
          "internalType": "bytes32",
          "name": "previousAdminRole",
          "type": "bytes32"
        },
        {
          "indexed": true,
          "internalType": "bytes32",
          "name": "newAdminRole",
          "type": "bytes32"
        }
      ],
      "name": "RoleAdminChanged",
      "type": "event"
    },
    {
      "anonymous": false,
      "inputs": [
        {
          "indexed": true,
          "internalType": "bytes32",
          "name": "role",
          "type": "bytes32"
        },
        {
          "indexed": true,
          "internalType": "address",
          "name": "account",
          "type": "address"
        },
        {
          "indexed": true,
          "internalType": "address",
          "name": "sender",
          "type": "address"
        }
      ],
      "name": "RoleGranted",
      "type": "event"
    },
    {
      "anonymous": false,
      "inputs": [
        {
          "indexed": true,
          "internalType": "bytes32",
          "name": "role",
          "type": "bytes32"
        },
        {
          "indexed": true,
          "internalType": "address",
          "name": "account",
          "type": "address"
        },
        {
          "indexed": true,
          "internalType": "address",
          "name": "sender",
          "type": "address"
        }
      ],
      "name": "RoleRevoked",
      "type": "event"
    },
    {
      "anonymous": false,
      "inputs": [
        {
          "indexed": true,
          "internalType": "address",
          "name": "to",
          "type": "address"
        },
        {
          "indexed": true,
          "internalType": "uint256",
          "name": "tokenId",
          "type": "uint256"
        },
        {
          "indexed": false,
          "internalType": "string",
          "name": "tokenURI",
          "type": "string"
        }
      ],
      "name": "TokenMinted",
      "type": "event"
    },
    {
      "anonymous": false,
      "inputs": [
        {
          "indexed": true,
          "internalType": "address",
          "name": "from",
          "type": "address"
        },
        {
          "indexed": true,
          "internalType": "address",
          "name": "to",
          "type": "address"
        },
        {
          "indexed": true,
          "internalType": "uint256",
          "name": "tokenId",
          "type": "uint256"
        }
      ],
      "name": "Transfer",
      "type": "event"
    },
    {
      "inputs": [],
      "name": "ADMIN_ROLE",
      "outputs": [
        {
          "internalType": "bytes32",
          "name": "",
          "type": "bytes32"
        }
      ],
      "stateMutability": "view",
      "type": "function"
    },
    {
      "inputs": [],
      "name": "DEFAULT_ADMIN_ROLE",
      "outputs": [
        {
          "internalType": "bytes32",
          "name": "",
          "type": "bytes32"
        }
      ],
      "stateMutability": "view",
      "type": "function"
    },
    {
      "inputs": [],
      "name": "MINTER_ROLE",
      "outputs": [
        {
          "internalType": "bytes32",
          "name": "",
          "type": "bytes32"
        }
      ],
      "stateMutability": "view",
      "type": "function"
    },
    {
      "inputs": [
        {
          "internalType": "address",
          "name": "to",
          "type": "address"
        },
        {
          "internalType": "uint256",
          "name": "tokenId",
          "type": "uint256"
        }
      ],
      "name": "approve",
      "outputs": [],
      "stateMutability": "nonpayable",
      "type": "function"
    },
    {
      "inputs": [
        {
          "internalType": "address",
          "name": "owner",
          "type": "address"
        }
      ],
      "name": "balanceOf",
      "outputs": [
        {
          "internalType": "uint256",
          "name": "",
          "type": "uint256"
        }
      ],
      "stateMutability": "view",
      "type": "function"
    },
    {
      "inputs": [
        {
          "internalType": "uint256",
          "name": "tokenId",
          "type": "uint256"
        }
      ],
      "name": "getApproved",
      "outputs": [
        {
          "internalType": "address",
          "name": "",
          "type": "address"
        }
      ],
      "stateMutability": "view",
      "type": "function"
    },
    {
      "inputs": [],
      "name": "getCurrentSupply",
      "outputs": [
        {
          "internalType": "uint256",
          "name": "",
          "type": "uint256"
        }
      ],
      "stateMutability": "view",
      "type": "function"
    },
    {
      "inputs": [],
      "name": "getMaxSupply",
      "outputs": [
        {
          "internalType": "uint256",
          "name": "",
          "type": "uint256"
        }
      ],
      "stateMutability": "view",
      "type": "function"
    },
    {
      "inputs": [],
      "name": "getMintPrice",
      "outputs": [
        {
          "internalType": "uint256",
          "name": "",
          "type": "uint256"
        }
      ],
      "stateMutability": "view",
      "type": "function"
    },
    {
      "inputs": [
        {
          "internalType": "bytes32",
          "name": "role",
          "type": "bytes32"
        }
      ],
      "name": "getRoleAdmin",
      "outputs": [
        {
          "internalType": "bytes32",
          "name": "",
          "type": "bytes32"
        }
      ],
      "stateMutability": "view",
      "type": "function"
    },
    {
      "inputs": [
        {
          "internalType": "bytes32",
          "name": "role",
          "type": "bytes32"
        },
        {
          "internalType": "address",
          "name": "account",
          "type": "address"
        }
      ],
      "name": "grantRole",
      "outputs": [],
      "stateMutability": "nonpayable",
      "type": "function"
    },
    {
      "inputs": [
        {
          "internalType": "bytes32",
          "name": "role",
          "type": "bytes32"
        },
        {
          "internalType": "address",
          "name": "account",
          "type": "address"
        }
      ],
      "name": "hasRole",
      "outputs": [
        {
          "internalType": "bool",
          "name": "",
          "type": "bool"
        }
      ],
      "stateMutability": "view",
      "type": "function"
    },
    {
      "inputs": [
        {
          "internalType": "address",
          "name": "owner",
          "type": "address"
        },
        {
          "internalType": "address",
          "name": "operator",
          "type": "address"
        }
      ],
      "name": "isApprovedForAll",
      "outputs": [
        {
          "internalType": "bool",
          "name": "",
          "type": "bool"
        }
      ],
      "stateMutability": "view",
      "type": "function"
    },
    {
      "inputs": [],
      "name": "name",
      "outputs": [
        {
          "internalType": "string",
          "name": "",
          "type": "string"
        }
      ],
      "stateMutability": "view",
      "type": "function"
    },
    {
      "inputs": [
        {
          "internalType": "uint256",
          "name": "tokenId",
          "type": "uint256"
        }
      ],
      "name": "ownerOf",
      "outputs": [
        {
          "internalType": "address",
          "name": "",
          "type": "address"
        }
      ],
      "stateMutability": "view",
      "type": "function"
    },
    {
      "inputs": [
        {
          "internalType": "string",
          "name": "uri",
          "type": "string"
        }
      ],
      "name": "publicMint",
      "outputs": [],
      "stateMutability": "payable",
      "type": "function"
    },
    {
      "inputs": [
        {
          "internalType": "bytes32",
          "name": "role",
          "type": "bytes32"
        },
        {
          "internalType": "address",
          "name": "account",
          "type": "address"
        }
      ],
      "name": "renounceRole",
      "outputs": [],
      "stateMutability": "nonpayable",
      "type": "function"
    },
    {
      "inputs": [
        {
          "internalType": "bytes32",
          "name": "role",
          "type": "bytes32"
        },
        {
          "internalType": "address",
          "name": "account",
          "type": "address"
        }
      ],
      "name": "revokeRole",
      "outputs": [],
      "stateMutability": "nonpayable",
      "type": "function"
    },
    {
      "inputs": [
        {
          "internalType": "address",
          "name": "to",
          "type": "address"
        },
        {
          "internalType": "string",
          "name": "uri",
          "type": "string"
        }
      ],
      "name": "safeMint",
      "outputs": [],
      "stateMutability": "payable",
      "type": "function"
    },
    {
      "inputs": [
        {
          "internalType": "address",
          "name": "from",
          "type": "address"
        },
        {
          "internalType": "address",
          "name": "to",
          "type": "address"
        },
        {
          "internalType": "uint256",
          "name": "tokenId",
          "type": "uint256"
        }
      ],
      "name": "safeTransferFrom",
      "outputs": [],
      "stateMutability": "nonpayable",
      "type": "function"
    },
    {
      "inputs": [
        {
          "internalType": "address",
          "name": "from",
          "type": "address"
        },
        {
          "internalType": "address",
          "name": "to",
          "type": "address"
        },
        {
          "internalType": "uint256",
          "name": "tokenId",
          "type": "uint256"
        },
        {
          "internalType": "bytes",
          "name": "data",
          "type": "bytes"
        }
      ],
      "name": "safeTransferFrom",
      "outputs": [],
      "stateMutability": "nonpayable",
      "type": "function"
    },
    {
      "inputs": [
        {
          "internalType": "address",
          "name": "operator",
          "type": "address"
        },
        {
          "internalType": "bool",
          "name": "approved",
          "type": "bool"
        }
      ],
      "name": "setApprovalForAll",
      "outputs": [],
      "stateMutability": "nonpayable",
      "type": "function"
    },
    {
      "inputs": [
        {
          "internalType": "uint256",
          "name": "newMaxSupply",
          "type": "uint256"
        }
      ],
      "name": "setMaxSupply",
      "outputs": [],
      "stateMutability": "nonpayable",
      "type": "function"
    },
    {
      "inputs": [
        {
          "internalType": "uint256",
          "name": "newMintPrice",
          "type": "uint256"
        }
      ],
      "name": "setMintPrice",
      "outputs": [],
      "stateMutability": "nonpayable",
      "type": "function"
    },
    {
      "inputs": [
        {
          "internalType": "bytes4",
          "name": "interfaceId",
          "type": "bytes4"
        }
      ],
      "name": "supportsInterface",
      "outputs": [
        {
          "internalType": "bool",
          "name": "",
          "type": "bool"
        }
      ],
      "stateMutability": "view",
      "type": "function"
    },
    {
      "inputs": [],
      "name": "symbol",
      "outputs": [
        {
          "internalType": "string",
          "name": "",
          "type": "string"
        }
      ],
      "stateMutability": "view",
      "type": "function"
    },
    {
      "inputs": [
        {
          "internalType": "uint256",
          "name": "tokenId",
          "type": "uint256"
        }
      ],
      "name": "tokenURI",
      "outputs": [
        {
          "internalType": "string",
          "name": "",
          "type": "string"
        }
      ],
      "stateMutability": "view",
      "type": "function"
    },
    {
      "inputs": [
        {
          "internalType": "address",
          "name": "from",
          "type": "address"
        },
        {
          "internalType": "address",
          "name": "to",
          "type": "address"
        },
        {
          "internalType": "uint256",
          "name": "tokenId",
          "type": "uint256"
        }
      ],
      "name": "transferFrom",
      "outputs": [],
      "stateMutability": "nonpayable",
      "type": "function"
    },
    {
      "inputs": [],
      "name": "withdraw",
      "outputs": [],
      "stateMutability": "nonpayable",
      "type": "function"
    }
  ],
  "bytecode": "0x60806040523480156200001157600080fd5b506040516200267b3803806200267b833981016040819052620000349162000239565b8383600062000044838262000342565b50600162000053828262000342565b506200006591506000905033620000cf565b620000917fa49807205ce4d355092ef5a8a18f56e8913cf4a201fbe287825b095693c2177533620000cf565b620000bd7f9f2df0fed2c77648de5860a4cc508cd0818c85b8b8a1ab4ceeef8d981c8956a633620000cf565b600991909155600a55506200040e9050565b60008281526007602090815260408083206001600160a01b038516845290915290205460ff16620001705760008281526007602090815260408083206001600160a01b03851684529091529020805460ff191660011790556200012f3390565b6001600160a01b0316816001600160a01b0316837f2f8788117e7eff1d82e926ec794901d17c78024a50270940304540a733656f0d60405160405180910390a45b5050565b634e487b7160e01b600052604160045260246000fd5b600082601f8301126200019c57600080fd5b81516001600160401b0380821115620001b957620001b962000174565b604051601f8301601f19908116603f01168101908282118183101715620001e457620001e462000174565b816040528381526020925086838588010111156200020157600080fd5b600091505b8382101562000225578582018301518183018401529082019062000206565b600093810190920192909252949350505050565b600080600080608085870312156200025057600080fd5b84516001600160401b03808211156200026857600080fd5b62000276888389016200018a565b955060208701519150808211156200028d57600080fd5b506200029c878288016200018a565b604087015160609097015195989097509350505050565b600181811c90821680620002c857607f821691505b602082108103620002e957634e487b7160e01b600052602260045260246000fd5b50919050565b601f8211156200033d57600081815260208120601f850160051c81016020861015620003185750805b601f850160051c820191505b81811015620003395782815560010162000324565b5050505b505050565b81516001600160401b038111156200035e576200035e62000174565b62000376816200036f8454620002b3565b84620002ef565b602080601f831160018114620003ae5760008415620003955750858301515b600019600386901b1c1916600185901b17855562000339565b600085815260208120601f198616915b82811015620003df57888601518255948401946001909101908401620003be565b5085821015620003fe5787850151600019600388901b60f8161c191681555b5050505050600190811b01905550565b61225d806200041e6000396000f3fe6080604052600436106101c25760003560e01c806370a08231116100f7578063b3d7acf911610095578063d539139311610064578063d5391393146104ee578063d547741f14610522578063e985e9c514610542578063f4a0a5281461058b57600080fd5b8063b3d7acf914610488578063b88d4fde1461049b578063c87b56dd146104bb578063d204c45e146104db57600080fd5b806395d89b41116100d157806395d89b4114610429578063a217fddf1461043e578063a22cb46514610453578063a7f93ebd1461047357600080fd5b806370a08231146103b557806375b238fc146103d557806391d148541461040957600080fd5b806336568abe116101645780634c0f38c21161013e5780634c0f38c21461034b5780634f3e1efc146103605780636352211e146103755780636f8b44b01461039557600080fd5b806336568abe146102f65780633ccfd60b1461031657806342842e0e1461032b57600080fd5b8063095ea7b3116101a0578063095ea7b31461025657806323b872dd14610278578063248a9ca3146102985780632f2ff15d146102d657600080fd5b806301ffc9a7146101c757806306fdde03146101fc578063081812fc1461021e575b600080fd5b3480156101d357600080fd5b506101e76101e2366004611b1d565b6105ab565b60405190151581526020015b60405180910390f35b34801561020857600080fd5b506102116105bc565b6040516101f39190611b8a565b34801561022a57600080fd5b5061023e610239366004611b9d565b61064e565b6040516001600160a01b0390911681526020016101f3565b34801561026257600080fd5b50610276610271366004611bd2565b610675565b005b34801561028457600080fd5b50610276610293366004611bfc565b61078f565b3480156102a457600080fd5b506102c86102b3366004611b9d565b60009081526007602052604090206001015490565b6040519081526020016101f3565b3480156102e257600080fd5b506102766102f1366004611c38565b6107c0565b34801561030257600080fd5b50610276610311366004611c38565b6107e5565b34801561032257600080fd5b50610276610863565b34801561033757600080fd5b50610276610346366004611bfc565b6108d9565b34801561035757600080fd5b506009546102c8565b34801561036c57600080fd5b506102c86108f4565b34801561038157600080fd5b5061023e610390366004611b9d565b610904565b3480156103a157600080fd5b506102766103b0366004611b9d565b610964565b3480156103c157600080fd5b506102c86103d0366004611c64565b6109cb565b3480156103e157600080fd5b506102c87fa49807205ce4d355092ef5a8a18f56e8913cf4a201fbe287825b095693c2177581565b34801561041557600080fd5b506101e7610424366004611c38565b610a51565b34801561043557600080fd5b50610211610a7c565b34801561044a57600080fd5b506102c8600081565b34801561045f57600080fd5b5061027661046e366004611c7f565b610a8b565b34801561047f57600080fd5b50600a546102c8565b610276610496366004611d67565b610a96565b3480156104a757600080fd5b506102766104b6366004611d9c565b610b52565b3480156104c757600080fd5b506102116104d6366004611b9d565b610b8a565b6102766104e9366004611e18565b610bcb565b3480156104fa57600080fd5b506102c87f9f2df0fed2c77648de5860a4cc508cd0818c85b8b8a1ab4ceeef8d981c8956a681565b34801561052e57600080fd5b5061027661053d366004611c38565b610cb3565b34801561054e57600080fd5b506101e761055d366004611e66565b6001600160a01b03918216600090815260056020908152604080832093909416825291909152205460ff1690565b34801561059757600080fd5b506102766105a6366004611b9d565b610cd8565b60006105b682610d37565b92915050565b6060600080546105cb90611e90565b80601f01602080910402602001604051908101604052809291908181526020018280546105f790611e90565b80156106445780601f1061061957610100808354040283529160200191610644565b820191906000526020600020905b81548152906001019060200180831161062757829003601f168201915b5050505050905090565b600061065982610d5c565b506000908152600460205260409020546001600160a01b031690565b600061068082610904565b9050806001600160a01b0316836001600160a01b0316036106f25760405162461bcd60e51b815260206004820152602160248201527f4552433732313a20617070726f76616c20746f2063757272656e74206f776e656044820152603960f91b60648201526084015b60405180910390fd5b336001600160a01b038216148061070e575061070e813361055d565b6107805760405162461bcd60e51b815260206004820152603d60248201527f4552433732313a20617070726f76652063616c6c6572206973206e6f7420746f60448201527f6b656e206f776e6572206f7220617070726f76656420666f7220616c6c00000060648201526084016106e9565b61078a8383610dbe565b505050565b6107993382610e2c565b6107b55760405162461bcd60e51b81526004016106e990611eca565b61078a838383610eab565b6000828152600760205260409020600101546107db8161100f565b61078a8383611019565b6001600160a01b03811633146108555760405162461bcd60e51b815260206004820152602f60248201527f416363657373436f6e74726f6c3a2063616e206f6e6c792072656e6f756e636560448201526e103937b632b9903337b91039b2b63360891b60648201526084016106e9565b61085f828261109f565b5050565b600061086e8161100f565b6040514790600090339083908381818185875af1925050503d80600081146108b2576040519150601f19603f3d011682016040523d82523d6000602084013e6108b7565b606091505b505090508061078a57604051631d42c86760e21b815260040160405180910390fd5b61078a83838360405180602001604052806000815250610b52565b60006108ff60085490565b905090565b6000818152600260205260408120546001600160a01b0316806105b65760405162461bcd60e51b8152602060048201526018602482015277115490cdcc8c4e881a5b9d985b1a59081d1bdad95b88125160421b60448201526064016106e9565b7fa49807205ce4d355092ef5a8a18f56e8913cf4a201fbe287825b095693c2177561098e8161100f565b60098290556040518281527f28a10a2e0b5582da7164754cb994f6214b8af6aa7f7e003305fbc09e7106c513906020015b60405180910390a15050565b60006001600160a01b038216610a355760405162461bcd60e51b815260206004820152602960248201527f4552433732313a2061646472657373207a65726f206973206e6f7420612076616044820152683634b21037bbb732b960b91b60648201526084016106e9565b506001600160a01b031660009081526003602052604090205490565b60009182526007602090815260408084206001600160a01b0393909316845291905290205460ff1690565b6060600180546105cb90611e90565b61085f338383611106565b60095460085410610aba5760405163d05cb60960e01b815260040160405180910390fd5b600a54341015610add576040516310f0c8f160e11b815260040160405180910390fd5b6000610ae860085490565b9050610af8600880546001019055565b610b0233826111d4565b610b0c81836111ee565b80336001600160a01b03167fdf92894dc4675a7333caa5903b69cf5d8e8ec0d3f361c88207b6688e525703bb84604051610b469190611b8a565b60405180910390a35050565b610b5c3383610e2c565b610b785760405162461bcd60e51b81526004016106e990611eca565b610b84848484846112b2565b50505050565b6000818152600260205260409020546060906001600160a01b0316610bc257604051634a1850bf60e11b815260040160405180910390fd5b6105b6826112e5565b7f9f2df0fed2c77648de5860a4cc508cd0818c85b8b8a1ab4ceeef8d981c8956a6610bf58161100f565b60095460085410610c195760405163d05cb60960e01b815260040160405180910390fd5b600a54341015610c3c576040516310f0c8f160e11b815260040160405180910390fd5b6000610c4760085490565b9050610c57600880546001019055565b610c6184826111d4565b610c6b81846111ee565b80846001600160a01b03167fdf92894dc4675a7333caa5903b69cf5d8e8ec0d3f361c88207b6688e525703bb85604051610ca59190611b8a565b60405180910390a350505050565b600082815260076020526040902060010154610cce8161100f565b61078a838361109f565b7fa49807205ce4d355092ef5a8a18f56e8913cf4a201fbe287825b095693c21775610d028161100f565b600a8290556040518281527f25b1f9f6b6e61dfca5575239769e4450ed2e49176670837f5d1a82a9a2fc693f906020016109bf565b60006001600160e01b03198216637965db0b60e01b14806105b657506105b6826113ed565b6000818152600260205260409020546001600160a01b0316610dbb5760405162461bcd60e51b8152602060048201526018602482015277115490cdcc8c4e881a5b9d985b1a59081d1bdad95b88125160421b60448201526064016106e9565b50565b600081815260046020526040902080546001600160a01b0319166001600160a01b0384169081179091558190610df382610904565b6001600160a01b03167f8c5be1e5ebec7d5bd14f71427d1e84f3dd0314c0f7b2291e5b200ac8c7c3b92560405160405180910390a45050565b600080610e3883610904565b9050806001600160a01b0316846001600160a01b03161480610e7f57506001600160a01b0380821660009081526005602090815260408083209388168352929052205460ff165b80610ea35750836001600160a01b0316610e988461064e565b6001600160a01b0316145b949350505050565b826001600160a01b0316610ebe82610904565b6001600160a01b031614610ee45760405162461bcd60e51b81526004016106e990611f17565b6001600160a01b038216610f465760405162461bcd60e51b8152602060048201526024808201527f4552433732313a207472616e7366657220746f20746865207a65726f206164646044820152637265737360e01b60648201526084016106e9565b826001600160a01b0316610f5982610904565b6001600160a01b031614610f7f5760405162461bcd60e51b81526004016106e990611f17565b600081815260046020908152604080832080546001600160a01b03199081169091556001600160a01b0387811680865260038552838620805460001901905590871680865283862080546001019055868652600290945282852080549092168417909155905184937fddf252ad1be2c89b69c2b068fc378daa952ba7f163c4a11628f55a4df523b3ef91a4505050565b610dbb8133611412565b6110238282610a51565b61085f5760008281526007602090815260408083206001600160a01b03851684529091529020805460ff1916600117905561105b3390565b6001600160a01b0316816001600160a01b0316837f2f8788117e7eff1d82e926ec794901d17c78024a50270940304540a733656f0d60405160405180910390a45050565b6110a98282610a51565b1561085f5760008281526007602090815260408083206001600160a01b0385168085529252808320805460ff1916905551339285917ff6391f5c32d9c69d2a47ea670b442974b53935d1edc7fd64eb21e047a839171b9190a45050565b816001600160a01b0316836001600160a01b0316036111675760405162461bcd60e51b815260206004820152601960248201527f4552433732313a20617070726f766520746f2063616c6c65720000000000000060448201526064016106e9565b6001600160a01b03838116600081815260056020908152604080832094871680845294825291829020805460ff191686151590811790915591519182527f17307eab39ab6107e8899845ad3d59bd9653f200f220920489ca2b5937696c31910160405180910390a3505050565b61085f82826040518060200160405280600081525061146b565b6000828152600260205260409020546001600160a01b03166112695760405162461bcd60e51b815260206004820152602e60248201527f45524337323155524953746f726167653a2055524920736574206f66206e6f6e60448201526d32bc34b9ba32b73a103a37b5b2b760911b60648201526084016106e9565b60008281526006602052604090206112818282611faa565b506040518281527ff8e1a15aba9398e019f0b49df1a4fde98ee17ae345cb5f6b5e2c27f5033e8ce7906020016109bf565b6112bd848484610eab565b6112c98484848461149e565b610b845760405162461bcd60e51b81526004016106e99061206a565b60606112f082610d5c565b6000828152600660205260408120805461130990611e90565b80601f016020809104026020016040519081016040528092919081815260200182805461133590611e90565b80156113825780601f1061135757610100808354040283529160200191611382565b820191906000526020600020905b81548152906001019060200180831161136557829003601f168201915b5050505050905060006113a060408051602081019091526000815290565b905080516000036113b2575092915050565b8151156113e45780826040516020016113cc9291906120bc565b60405160208183030381529060405292505050919050565b610ea38461159f565b60006001600160e01b03198216632483248360e11b14806105b657506105b682611613565b61141c8282610a51565b61085f5761142981611663565b611434836020611675565b6040516020016114459291906120eb565b60408051601f198184030181529082905262461bcd60e51b82526106e991600401611b8a565b6114758383611811565b611482600084848461149e565b61078a5760405162461bcd60e51b81526004016106e99061206a565b60006001600160a01b0384163b1561159457604051630a85bd0160e11b81526001600160a01b0385169063150b7a02906114e2903390899088908890600401612160565b6020604051808303816000875af192505050801561151d575060408051601f3d908101601f1916820190925261151a9181019061219d565b60015b61157a573d80801561154b576040519150601f19603f3d011682016040523d82523d6000602084013e611550565b606091505b5080516000036115725760405162461bcd60e51b81526004016106e99061206a565b805181602001fd5b6001600160e01b031916630a85bd0160e11b149050610ea3565b506001949350505050565b60606115aa82610d5c565b60006115c160408051602081019091526000815290565b905060008151116115e1576040518060200160405280600081525061160c565b806115eb8461199c565b6040516020016115fc9291906120bc565b6040516020818303038152906040525b9392505050565b60006001600160e01b031982166380ac58cd60e01b148061164457506001600160e01b03198216635b5e139f60e01b145b806105b657506301ffc9a760e01b6001600160e01b03198316146105b6565b60606105b66001600160a01b03831660145b606060006116848360026121d0565b61168f9060026121e7565b67ffffffffffffffff8111156116a7576116a7611cbb565b6040519080825280601f01601f1916602001820160405280156116d1576020820181803683370190505b509050600360fc1b816000815181106116ec576116ec6121fa565b60200101906001600160f81b031916908160001a905350600f60fb1b8160018151811061171b5761171b6121fa565b60200101906001600160f81b031916908160001a905350600061173f8460026121d0565b61174a9060016121e7565b90505b60018111156117c2576f181899199a1a9b1b9c1cb0b131b232b360811b85600f166010811061177e5761177e6121fa565b1a60f81b828281518110611794576117946121fa565b60200101906001600160f81b031916908160001a90535060049490941c936117bb81612210565b905061174d565b50831561160c5760405162461bcd60e51b815260206004820181905260248201527f537472696e67733a20686578206c656e67746820696e73756666696369656e7460448201526064016106e9565b6001600160a01b0382166118675760405162461bcd60e51b815260206004820181905260248201527f4552433732313a206d696e7420746f20746865207a65726f206164647265737360448201526064016106e9565b6000818152600260205260409020546001600160a01b0316156118cc5760405162461bcd60e51b815260206004820152601c60248201527f4552433732313a20746f6b656e20616c7265616479206d696e7465640000000060448201526064016106e9565b6000818152600260205260409020546001600160a01b0316156119315760405162461bcd60e51b815260206004820152601c60248201527f4552433732313a20746f6b656e20616c7265616479206d696e7465640000000060448201526064016106e9565b6001600160a01b038216600081815260036020908152604080832080546001019055848352600290915280822080546001600160a01b0319168417905551839291907fddf252ad1be2c89b69c2b068fc378daa952ba7f163c4a11628f55a4df523b3ef908290a45050565b606060006119a983611a2f565b600101905060008167ffffffffffffffff8111156119c9576119c9611cbb565b6040519080825280601f01601f1916602001820160405280156119f3576020820181803683370190505b5090508181016020015b600019016f181899199a1a9b1b9c1cb0b131b232b360811b600a86061a8153600a85049450846119fd57509392505050565b60008072184f03e93ff9f4daa797ed6e38ed64bf6a1f0160401b8310611a6e5772184f03e93ff9f4daa797ed6e38ed64bf6a1f0160401b830492506040015b6d04ee2d6d415b85acef81000000008310611a9a576d04ee2d6d415b85acef8100000000830492506020015b662386f26fc100008310611ab857662386f26fc10000830492506010015b6305f5e1008310611ad0576305f5e100830492506008015b6127108310611ae457612710830492506004015b60648310611af6576064830492506002015b600a83106105b65760010192915050565b6001600160e01b031981168114610dbb57600080fd5b600060208284031215611b2f57600080fd5b813561160c81611b07565b60005b83811015611b55578181015183820152602001611b3d565b50506000910152565b60008151808452611b76816020860160208601611b3a565b601f01601f19169290920160200192915050565b60208152600061160c6020830184611b5e565b600060208284031215611baf57600080fd5b5035919050565b80356001600160a01b0381168114611bcd57600080fd5b919050565b60008060408385031215611be557600080fd5b611bee83611bb6565b946020939093013593505050565b600080600060608486031215611c1157600080fd5b611c1a84611bb6565b9250611c2860208501611bb6565b9150604084013590509250925092565b60008060408385031215611c4b57600080fd5b82359150611c5b60208401611bb6565b90509250929050565b600060208284031215611c7657600080fd5b61160c82611bb6565b60008060408385031215611c9257600080fd5b611c9b83611bb6565b915060208301358015158114611cb057600080fd5b809150509250929050565b634e487b7160e01b600052604160045260246000fd5b600067ffffffffffffffff80841115611cec57611cec611cbb565b604051601f8501601f19908116603f01168101908282118183101715611d1457611d14611cbb565b81604052809350858152868686011115611d2d57600080fd5b858560208301376000602087830101525050509392505050565b600082601f830112611d5857600080fd5b61160c83833560208501611cd1565b600060208284031215611d7957600080fd5b813567ffffffffffffffff811115611d9057600080fd5b610ea384828501611d47565b60008060008060808587031215611db257600080fd5b611dbb85611bb6565b9350611dc960208601611bb6565b925060408501359150606085013567ffffffffffffffff811115611dec57600080fd5b8501601f81018713611dfd57600080fd5b611e0c87823560208401611cd1565b91505092959194509250565b60008060408385031215611e2b57600080fd5b611e3483611bb6565b9150602083013567ffffffffffffffff811115611e5057600080fd5b611e5c85828601611d47565b9150509250929050565b60008060408385031215611e7957600080fd5b611e8283611bb6565b9150611c5b60208401611bb6565b600181811c90821680611ea457607f821691505b602082108103611ec457634e487b7160e01b600052602260045260246000fd5b50919050565b6020808252602d908201527f4552433732313a2063616c6c6572206973206e6f7420746f6b656e206f776e6560408201526c1c881bdc88185c1c1c9bdd9959609a1b606082015260800190565b60208082526025908201527f4552433732313a207472616e736665722066726f6d20696e636f72726563742060408201526437bbb732b960d91b606082015260800190565b601f82111561078a57600081815260208120601f850160051c81016020861015611f835750805b601f850160051c820191505b81811015611fa257828155600101611f8f565b505050505050565b815167ffffffffffffffff811115611fc457611fc4611cbb565b611fd881611fd28454611e90565b84611f5c565b602080601f83116001811461200d5760008415611ff55750858301515b600019600386901b1c1916600185901b178555611fa2565b600085815260208120601f198616915b8281101561203c5788860151825594840194600190910190840161201d565b508582101561205a5787850151600019600388901b60f8161c191681555b5050505050600190811b01905550565b60208082526032908201527f4552433732313a207472616e7366657220746f206e6f6e20455243373231526560408201527131b2b4bb32b91034b6b83632b6b2b73a32b960711b606082015260800190565b600083516120ce818460208801611b3a565b8351908301906120e2818360208801611b3a565b01949350505050565b7f416363657373436f6e74726f6c3a206163636f756e7420000000000000000000815260008351612123816017850160208801611b3a565b7001034b99036b4b9b9b4b733903937b6329607d1b6017918401918201528351612154816028840160208801611b3a565b01602801949350505050565b6001600160a01b038581168252841660208201526040810183905260806060820181905260009061219390830184611b5e565b9695505050505050565b6000602082840312156121af57600080fd5b815161160c81611b07565b634e487b7160e01b600052601160045260246000fd5b80820281158282048414176105b6576105b66121ba565b808201808211156105b6576105b66121ba565b634e487b7160e01b600052603260045260246000fd5b60008161221f5761221f6121ba565b50600019019056fea26469706673582212201f2c5ceb931dc80085ddf300216007709161087010802ec18e4fac50542f730c64736f6c63430008130033",
  "linkReferences": {},
  "deployedLinkReferences": {}
}